:020000040800F2
:100000000080012019080008690800086908000834
:100010006908000869080008690800080000000075
:100020000000000000000000000000006908000857
:100030006908000800000000690800084111000874
:100040000000000069080008690800086908000845
:100050006908000869080008CD040008690800085C
:1000600069080008710400082504000869080008F0
:10007000690800086908000869080008690800089C
:100080006908000869080008690800080000000005
:1000900000000000000000000000000069080008E7
:1000A000690800086908000869080008690800086C
:1000B000690800086908000869080008690800085C
:1000C000690800086908000869080008690800084C
:1000D00069080008690800086908000800000000B5
:1000E00069080008690800086908000800000000A5
:1000F0000000000000000000000000006908000887
:100100000000000069080008690800086908000884
:1001100000000000000000000000000000000000DF
:1001200069080008690800086908000869080008EB
:100130006908000800000000000000000000000046
:100140000000000000000000000000006908000836
:1001500069080008690800086908000869080008BB
:10016000690800086908000800000000000000009D
:10017000000000000000000000000000000000007F
:10018000000000000000000000000000000000006F
:0401900069080008F2
:1001940010B5054C237833B9044B13B10448AFF3BD
:1001A40000800123237010BD240000200000000003
:1001B400D811000808B5034B1BB103490348AFF33A
:1001C400008008BD0000000028000020D8110008AD
:1001D40080B582B002AF0E4B0022DA6000F07AFBE9
:1001E40000F032F800F07CFF00F060F800F0DAF87C
:1001F40000F09AF8042300934FF40063054A0121A8
:10020400044800F023FA00F0E7F900F059FAFAE79D
:10021400480000200000024080B584B000AF786040
:1002240000F080FFF86000BF00F07CFF0346194631
:10023400F86800F0B7F902467B689342F4D200BF35
:1002440000BF1037BD4680BD80B582B000AF01212C
:10025400072000F077FE01233B7102237B7100230A
:10026400BB710223FB7140F60B433B603B461946CE
:100274000B4800F0F9FC4FF400533B603B46194631
:10028400084800F0F1FC4FF400733B603B4619460C
:10029400054800F0E9FC00BF0837BD4680BD00BF3B
:1002A40000000240000402400008024080B586B00D
:1002B40000AF0121012000F045FE00233B7510230F
:1002C4003B6102237B750123FB7507F1100319467B
:1002D400144800F0C9FC01214FF4804000F052FEA4
:1002E4000421002000F06EFE1023BB6000233B734A
:1002F40010237B730123BB7307F10803184600F036
:1003040017FC0A233B7103237B710323BB71012375
:10031400FB713B1D184600F0A9FB00BF1837BD4612
:1003240080BD00BF0000024080B586B000AF01214F
:10033400022000F007FE00233B7501233B610223EA
:100344007B750123FB7507F110031946144800F06F
:100354008BFC01214FF4804000F014FE00210120A9
:1003640000F030FE0123BB6000233B7310237B733A
:100374000123BB7307F10803184600F0D9FB0623D9
:100384003B7102237B710223BB710123FB713B1D73
:10039400184600F06BFB00BF1837BD4680BD00BF98
:1003A4000004024080B586B000AF0121022000F0B5
:1003B400C9FD00233B7508233B6102237B750123A0
:1003C400FB7507F110031946144800F04DFC012198
:1003D4004FF4804000F0D6FD0321012000F0F2FD2F
:1003E4000823BB6000233B7310237B730123BB737F
:1003F40007F10803184600F09BFB09233B71012316
:100404007B710123BB710123FB713B1D184600F076
:100414002DFB00BF1837BD4680BD00BF000402405D
:1004240080B500AF102000F0F5FB0346012B12D17C
:1004340010210B4800F0A6FC0346002B05D100F068
:1004440071FE0346074A136005E0074B1B7801332E
:10045400DAB2054B1A70102000F0F6FB00BF80BD25
:1004640000000240440000204000002080B500AF9E
:10047400082000F0CFFB0346012B1CD108211048B3
:1004840000F080FC0346002B0DD10E4B01221A70A4
:1004940000F048FE03460B4A53600A4BDB68013305
:1004A400084AD36007E000F03DFE0346054A936026
:1004B400044B02221A70082000F0C6FB00BF80BD66
:1004C400000402404800002080B500AF012000F085
:1004D400A1FB0346012B1CD10121104800F052FC62
:1004E4000346002B0DD10E4B01221A7000F01AFEA8
:1004F40003460B4A53600A4BDB680133084AD36056
:1005040007E000F00FFE0346054A9360044B022205
:100514001A70012000F098FB00BF80BD0004024067
:100524005800002080B483B000AF78600B467B8015
:1005340013467B707B78012B02D17B687A881A83FF
:100544007B78002B02D17B687A885A8300BF0C37F2
:10055400BD465DF8047B704780B586B000AFF86097
:100564000B467A607B8100237B6112E07B8919460C
:10057400F86800F021FCC820FFF74EFE7B8919467D
:10058400F86800F028FCC820FFF746FE7B690133B9
:100594007B617A697B689A42E8D300BF00BF183751
:1005A400BD4680BD80B485B000AF786039603A68DC
:1005B4007B689A4204D33A687B68D31AFB6004E0F0
:1005C4003A687B68D31A013BFB60FB681846143712
:1005D400BD465DF8047B704790B583B002AF174BFE
:1005E4001B78052B15D1C820FFF716FE05230093B1
:1005F4004FF40063124A0121114800F027F8032246
:100604004FF400710F48FFF7A7FF0C4B00221A703C
:100614000FE00D4B1C6800F085FD0346194620468B
:10062400FFF7C0FF0346B3F5FA7F02D9034B00225C
:100634001A7000BF0437BD4690BD00BF40000020C3
:1006440000000240000802404400002080B586B04B
:1006540000AFF8607A601A460B467B8113463B81F3
:1006640000237B6122E07B8901221946F868FFF7A9
:1006740059FF3B89012219467868FFF753FF4FF46D
:10068400FA70FFF7C9FD7B8900221946F868FFF765
:1006940049FF3B89002219467868FFF743FF4FF46E
:1006A400FA70FFF7B9FD7B6901337B617A693B6AB4
:1006B4009A42D8D300BF00BF1837BD4680BD0000A2
:1006C40098B500AF4F4B1B78012B15D14D4B5C688F
:1006D40000F028FD034619462046FFF763FF034652
:1006E400B3F5FA7F08D9474B0022DA6001224FF4B0
:1006F40080614548FFF716FF424B1B78022B30D12F
:1007040000224FF480614048FFF70CFF3D4BDB684B
:10071400012B0FD13B4B9C6800F004FD03461946A6
:100724002046FFF73FFF0346B3F5C87F02D9354B98
:100734000022DA60334BDB68022B05D101224FF42F
:1007440080613148FFF7EEFE2E4BDB68022B08D99F
:1007540000224FF480612C48FFF7E4FE294B00226D
:10076400DA602A4B1B78012B15D1284B5C6800F00A
:10077400D9FC034619462046FFF714FF0346B3F598
:10078400FA7F08D9214B0022DA6001224FF400518C
:100794001F48FFF7C7FE1D4B1B78022B30D10022E8
:1007A4004FF400511A48FFF7BDFE184BDB68012BCC
:1007B4000FD1164B9C6800F0B5FC03461946204641
:1007C400FFF7F0FE0346B3F5C87F02D90F4B0022B2
:1007D400DA600E4BDB68022B05D101224FF4005185
:1007E4000B48FFF79FFE094BDB68022B08D9002258
:1007F4004FF400510648FFF795FE044B0022DA60DF
:1008040000BF98BD480000200000024058000020AE
:10081400000402400D48854600F026F80C480D49B6
:100824000D4A002302E0D458C4500433C4188C4247
:10083400F9D30A4A0A4C002301E013600432A242AD
:10084400FBD300F0A3FCFFF7C3FCFEE7008001200C
:100854000000002024000020F811000824000020DB
:10086400EC010020FEE7000080B500AF164BD3F882
:100874008830154A43F47003C2F88830134B1B6860
:10088400124A43F001031360104B00229A600F4B8D
:100894001B680E4A23F0847323F4803313600B4BDC
:1008A4000B4A5A60094B1B68084A23F480231360DF
:1008B400064B0022DA6000F089F8034B4FF0006227
:1008C4009A6000BF80BD00BF00ED00E00038024028
:1008D4001030002480B487B000AF00233B610023B4
:1008E4007B610223FB600023BB6002237B60324BED
:1008F4009B6803F00C033B613B69042B07D0082B76
:1009040009D0002B3DD12D4B2D4A1A603DE02B4BD5
:100914002C4A1A6039E0284B5B689B0D03F00103F5
:10092400BB60254B5B6803F03F037B60BB68002B17
:100934000CD0244A7B68B2FBF3F31F4A5268920935
:10094400C2F3080202FB03F37B610BE01C4A7B68E1
:10095400B2FBF3F3184A52689209C2F3080202FB8D
:1009640003F37B61144B5B681B0C03F0030301333B
:100974005B00FB607A69FB68B2FBF3F30F4A136018
:1009840003E00E4B0E4A1A6000BF0B4B9B681B0919
:1009940003F00F030C4AD35CDBB23B61074B1A68CC
:1009A4003B6922FA03F3054A136000BF1C37BD46B6
:1009B4005DF8047B704700BF00380240000000204F
:1009C4000024F40040787D010400002080B400AFCE
:1009D400224B1B6C214A43F080531364204B1B6849
:1009E4001F4A43F4404313601C4B1C4A9B689360AA
:1009F4001A4B1A4A9B689360184B9B68174A43F436
:100A040080539360154B174A5A60144B1B68134A62
:100A140043F08073136000BF104B1B6803F0007336
:100A2400002BF9D0104B40F202621A600B4B9B680A
:100A34000A4A23F003039360084B9B68074A43F078
:100A44000203936000BF054B9B6803F00C03082B63
:100A5400F9D100BFBD465DF8047B70470038024001
:100A64000070004010540108003C024080B485B07E
:100A740000AF78600023FB730023BB730F237B73E9
:100A84007B68DB78002B39D0274BDB68DB431B0A00
:100A9400DBB203F00703FB73FB7BC3F10403BB73FB
:100AA4007A7BFB7B42FA03F37B737B685B781A46A1
:100AB400BB7B02FA03F3FB737B689A787B7B13405E
:100AC400DAB2FB7B1343FB73FB7B1B01FB73174AFB
:100AD4007B681B781344FA7B83F800237B681B78BC
:100AE40003F01F0311497A6812785209D2B21046F2
:100AF400012202FA03F341F820300FE07B681B78EF
:100B040003F01F0309497A6812785209D2B21046D9
:100B140001229A4000F1200341F8232000BF14373A
:100B2400BD465DF8047B704700ED00E000E100E0A5
:100B340080B485B000AF78600023FB60344BFB6069
:100B44007B689B79002B4FD0314B1A687B681B68FC
:100B5400DB432F4913400B602D4B5A687B681B689D
:100B6400DB432B4913404B607B681B791A46FB68B7
:100B74001344FB60FB6819687B681A68FB680A43C6
:100B84001A60234B9A687B681B68DB432049134037
:100B94008B601F4BDA687B681B68DB431C4913407E
:100BA400CB607B685B79102B0ED1194B9A687B68FC
:100BB4001B68174913438B60154BDA687B681B6805
:100BC40013491343CB601DE0114BFB607B685B79D9
:100BD4001A46FB681344FB60FB6819687B681A6853
:100BE400FB680A431A600DE07B681B791A46FB68B0
:100BF4001344FB60FB6819687B681B68DA43FB6875
:100C04000A401A6000BF1437BD465DF8047B704784
:100C1400003C014080B485B000AF78600023FB73D2
:100C2400084B5A697B681340002B02D00123FB73E5
:100C340001E00023FB73FB7B18461437BD465DF8C7
:100C4400047B7047003C014080B483B000AF7860FF
:100C5400044A7B68536100BF0C37BD465DF8047BD2
:100C6400704700BF003C014080B487B000AF78609B
:100C7400396000237B6100233B610023FB60002378
:100C84007B6176E001227B6902FA03F33B613B68F6
:100C94001B683A691340FB60FA683B699A4265D164
:100CA4007B681A687B695B00032101FA03F3DB4369
:100CB4001A407B681A607B681A683B681B7919467E
:100CC4007B695B0001FA03F31A437B681A603B6893
:100CD4001B79012B03D03B681B79022B2ED17B6837
:100CE4009A687B695B00032101FA03F3DB431A4032
:100CF4007B689A607B689A683B685B7919467B6974
:100D04005B0001FA03F31A437B689A607B685A68B4
:100D14007B699BB2194601238B40DB431A407B68F5
:100D24005A607B685B683A68927911467A6992B234
:100D340001FA02F292B21A437B685A607B68DA685D
:100D44007B699BB25B00032101FA03F3DB431A4086
:100D54007B68DA607B68DA683B68DB7919467B6913
:100D64005B0001FA03F31A437B68DA607B690133A1
:100D74007B617B690F2B85D900BF1C37BD465DF8AD
:100D8400047B704780B485B000AF78600B467B80ED
:100D94000023FB737B681A697B881340002B02D005
:100DA4000123FB7301E00023FB73FB7B184614371C
:100DB400BD465DF8047B704780B483B000AF7860B3
:100DC4000B467B807B687A881A8300BF0C37BD464C
:100DD4005DF8047B704780B483B000AF78600B4645
:100DE4007B807B687A885A8300BF0C37BD465DF8E8
:100DF400047B704780B489B000AF78600023BB6186
:100E040000237B610023FB6102233B610023FB6021
:100E14000223BB60474B9B6803F00C03BB61BB69B7
:100E2400042B07D0082B09D0002B3DD17B68424A04
:100E34001A603DE07B68414A1A6039E03D4B5B68CB
:100E44009B0D03F00103FB603A4B5B6803F03F0327
:100E5400BB60FB68002B0CD0384ABB68B2FBF3F3D1
:100E6400344A52689209C2F3080202FB03F3FB619D
:100E74000BE0314ABB68B2FBF3F32E4A5268920985
:100E8400C2F3080202FB03F3FB612A4B5B681B0CF1
:100E940003F0030301335B003B61FA693B69B2FB76
:100EA400F3F27B681A6003E07B68234A1A6000BF90
:100EB400204B9B6803F0F003BB61BB691B09BB615A
:100EC4001F4ABB6913441B78DBB27B617B681A68D9
:100ED4007B69DA407B685A60164B9B6803F4E053E5
:100EE400BB61BB699B0ABB61154ABB6913441B7890
:100EF400DBB27B617B685A687B69DA407B689A6005
:100F04000C4B9B6803F46043BB61BB695B0BBB6127
:100F14000B4ABB6913441B78DBB27B617B685A685C
:100F24007B69DA407B68DA6000BF2437BD465DF830
:100F3400047B7047003802400024F40040787D01AF
:100F44001400002080B483B000AF78600B46FB70BF
:100F5400FB78002B06D00A4B1A6B09497B681343B4
:100F64000B6306E0064B1A6B7B68DB4304491340B2
:100F74000B6300BF0C37BD465DF8047B704700BFB0
:100F84000038024080B483B000AF78600B46FB7039
:100F9400FB78002B06D00A4B5A6C09497B68134333
:100FA4004B6406E0064B5A6C7B68DB4304491340F0
:100FB4004B6400BF0C37BD465DF8047B704700BF2F
:100FC4000038024080B485B000AF03460A46FB7186
:100FD4001346BB710023FB60BB7903F003039B0042
:100FE4000F2202FA03F3FB60164ABB799B08DBB2BB
:100FF400023352F82320FB68DB431248B97989088D
:10100400C9B21A408B1C40F823200E4ABB799B08B6
:10101400DBB2023352F82320F979BB7903F00303DE
:101024009B0001FA03F30748B9798908C9B21A4346
:101034008B1C40F8232000BF1437BD465DF8047BA9
:10104400704700BF0038014080B483B000AF03464E
:101054003960FB7197F90730002B0BDA3B68DAB281
:101064000C49FB7903F00F03043B1201D2B20B4489
:101074001A7609E03B68DAB2074997F9073012019A
:10108400D2B20B4483F8002300BF0C37BD465DF891
:10109400047B704700ED00E000E100E080B582B021
:1010A40000AF78607B68013BB3F1807F01D30123FB
:1010B4000FE00A4A7B68013B53600F214FF0FF3079
:1010C400FFF7C2FF054B00229A60044B07221A6007
:1010D400002318460837BD4680BD00BF10E000E07D
:1010E40080B584B000AF3B461846FFF783FE3B68EB
:1010F4000A4AA2FB03239B091846FFF7CFFF0121ED
:101104004FF0FF30FFF7A0FF4FF4C07200210448F6
:1011140000F022F800BF1037BD4680BDD34D6210E9
:101124006800002080B400AF034B1B681846BD461E
:101134005DF8047B704700BFE801002080B400AF75
:10114400044B1B680133034A136000BFBD465DF8BE
:10115400047B7047E801002080B483B000AF78605E
:101164000B46FB7013463B8004E07B685A1C7A6094
:10117400FA781A703B885A1E3A80002BF5D100BFCA
:101184000C37BD465DF8047B7047000070B50D4D0B
:101194000D4C641BA4100026A64209D10B4D0C4C27
:1011A40000F018F8641BA4100026A64205D170BDF7
:1011B40055F8043B98470136EEE755F8043B984749
:1011C4000136F2E7F0110008F0110008F0110008F0
:1011D400F4110008F8B500BFF8BC08BC9E4670477F
:0C11E400F8B500BFF8BC08BC9E46704780
:0411F000B901000839
:0411F4009501000859
:1011F80000BD01050000000000000000010203041A
:1012080006070809000000000102030401020304A4
:0412180006070809B4
:0400000508000819CE
:00000001FF
